:1000000012C02CC048C119C1CCC028C027C026C00E
:1000100025C024C023C022C021C020C053C11EC09F
:100020001DC01CC01BC011241FBECFE5D4E0DEBF25
:10003000CDBF10E0A0E6B0E0E2E3F9E002C0059039
:100040000D92AC3AB107D9F710E0ACEAB0E001C0CC
:100050001D92A33CB107E1F71BD069C4D1CF1F9318
:10006000182F8A3011F48DE0FADF5D9BFECF1CB9AA
:1000700080E090E01F9108958AB188618AB980B5C7
:10008000866880BD10BC8FEC89B9089571D308953E
:10009000DF92EF92FF920F931F93CF93DF938AE249
:1000A00090E066D3D82E86E990E062D3E82E88E906
:1000B00090E05ED3F82ECE2DD0E0082F10E0DCDFEC
:1000C0002EE930E03093C0002093BF0000D000D074
:1000D00020E630E0EDB7FEB732832183D483C383BB
:1000E0005DD126E730E0EDB7FEB73283218314837C
:1000F000038354D12DE830E0EDB7FEB7328321837E
:100100000D0D111D0150104025960C9F90010D9F63
:10011000300D1C9F300D1124348323833FD10F9069
:100120000F900F900F9007D080E260E22ED18E2DBD
:100130006F2D24D1FFCF89E785BD89B7806489BF42
:1001400081E983BD10BC8FEC89B988E18AB986E862
:1001500080BD9FE397BB94EF91BB91EA9FBD92E076
:100160009EBD86B9979880E0EDD081E061E0F3D044
:1001700080E060E0F0D081E0D2D080E260E205D1A2
:1001800080E060E0FBD01092B1001092B0001092BD
:10019000B8001092B7001092AF001092AE007894A1
:1001A00008951F920F920FB60F9211242F933F9331
:1001B0004F935F936F937F938F939F93AF93BF936F
:1001C000EF93FF9384B58B5D84BD8091B6008F5F04
:1001D0008093B6008091B600882399F48091B9008D
:1001E0009091BA00A091BB00B091BC000196A11DF6
:1001F000B11D8093B9009093BA00A093BB00B09357
:10020000BC008091B7009091B800009729F0E09170
:10021000B700F091B8000995FF91EF91BF91AF91B0
:100220009F918F917F916F915F914F913F912F910E
:100230000F900FBE0F901F9018951F920F920FB640
:100240000F9211248F939F93AF93BF938091B60029
:100250008F5F8093B6008091B600882399F48091D7
:10026000B9009091BA00A091BB00B091BC0001967A
:10027000A11DB11D8093B9009093BA00A093BB005B
:10028000B093BC00BF91AF919F918F910F900FBE23
:100290000F901F9018951F920F920FB60F92112476
:1002A0008F939F9381E090E09093AD008093AC009A
:1002B0008BB78F778BBF9F918F910F900FBE0F9051
:1002C0001F9018951F920F920FB60F9211242F9323
:1002D0003F934F935F936F937F938F939F93AF93CE
:1002E000BF93EF93FF938091AE009091AF00009782
:1002F00029F0E091AE00F091AF000995FF91EF91E8
:10030000BF91AF919F918F917F916F915F914F912D
:100310003F912F910F900FBE0F901F90189588233B
:1003200011F4C09803C0813019F4C09A92980895CE
:10033000833019F4C09A929A0895823011F4C098CB
:10034000929A089592B38295880F880F807C9F7B44
:10035000982B92BB0895982F882311F4662349F0B7
:10036000979884B3836084BB85B3836085BB9923EE
:1003700009F4A998662309F4A898089590E09BBD14
:100380008ABD70E079BD68BD089592B39F7C982BBB
:1003900092BB88B38F7C862B88BB0895A0E0B0E029
:1003A000E3EDF1E09DC2FE0135966191719180917E
:1003B000BF009091C000AF0103D02096E2E0ACC234
:1003C000ACE0B0E0E5EEF1E07BC26C011B018A011C
:1003D000FC0117821682838181FFC4C12E0108941B
:1003E000411C511CF6019381F10193FD859193FF0E
:1003F00081911F01882309F4B1C1853239F493FD3D
:10040000859193FF81911F01853221F490E0B6011F
:10041000CDD1E8CFEE24FF2420E02032B0F48B329F
:1004200069F08C3228F4803251F0833271F40BC0C1
:100430008D3239F0803349F421602CC02260246071
:1004400029C0286027C0206125C027FD2CC0382F77
:1004500030533A3098F426FF08C08E2D880FE82ECE
:10046000EE0CEE0CE80EE30E15C08F2D880FF82E63
:10047000FF0CFF0CF80EF30E20620CC08E3221F43C
:1004800026FD6CC1206406C08C3611F4206802C0C1
:10049000883649F4F10193FD859193FF81911F0105
:1004A000882309F0BACF982F9554933018F09052C2
:1004B000933028F40C5F1F4FFFE3F9830DC08336A0
:1004C00031F0833771F0833509F05CC021C0F80149
:1004D000808189830E5F1F4F420171E0A72EB12CEE
:1004E00015C062E0662E712C600E711EF8018080CE
:1004F000918026FF03C06E2D70E002C06FEF7FEF8A
:10050000C4012C8748D15C0183012C852F7716C04C
:1005100052E0652E712C600E711EF8018080918072
:1005200026FF03C06E2D70E002C06FEF7FEFC401A5
:100530002C8726D15C012C852068830123FD1EC0F9
:1005400007C080E290E0B6012C8730D1FA942C8568
:100550008F2D90E0A816B906A0F310C0F40127FD76
:10056000859127FF81914F0190E0B6012C871ED124
:100570002C85F110FA940894A108B108A114B104D3
:1005800069F7E9C0843611F0893641F527FF08C0C4
:10059000F80160817181828193810C5F1F4F09C0D6
:1005A000F80160817181882777FD8095982F0E5F13
:1005B0001F4F4FE6B42EB22297FF09C09095809549
:1005C000709561957F4F8F4F9F4FF0E8BF2AA20132
:1005D0002AE030E017D1782E741844C0853731F402
:1005E0003FEEB32EB2222AE030E025C099EFB92EBB
:1005F000B2228F36C1F0803720F4883509F0AEC0C2
:100600000DC0803721F0883709F0A8C002C020E172
:10061000B22AB4FE0BC084E0B82A08C0B4FE09C0F8
:10062000E6E0BE2A06C028E030E005C020E130E068
:1006300002C020E132E0B7FE08C0F801608171819C
:10064000828193810C5F1F4F07C0F8016081718127
:1006500080E090E00E5F1F4FA201D4D0782E741876
:10066000FFE7BF22B6FE0BC02EEFB2227E1438F495
:10067000B4FE07C0B2FC05C08FEEB82202C0A72CA2
:1006800001C0AE2C8B2D90E0B4FE0DC0FE01E70D35
:10069000F11D2081203319F4E9EEBE2209C0A39494
:1006A000B2FE06C004C086789070009709F0A3944B
:1006B0008B2C9924B3FC13C0B0FE0EC0AF1428F4E9
:1006C000E72CEF0CEA18AF2C07C0E72C05C080E23E
:1006D00090E0B6016BD0A394AF14C8F304C0AF147C
:1006E00010F4FA1801C0FF2484FE0EC080E390E0ED
:1006F000B6015CD082FE1DC081FE03C088E590E09B
:1007000010C088E790E00DC0C40186789070009713
:1007100081F081FC02C080E201C08BE2B7FC8DE277
:1007200090E0B60143D005C080E390E0B6013ED032
:10073000EA947E14C8F37A94F201E70DF11D8081EA
:1007400090E0B60133D07720B1F705C080E290E0A9
:10075000B6012CD0FA94FF20C9F744CEF6012681C9
:10076000378102C02FEF3FEFC9012C96E2E1C4C0F0
:10077000E199FECF9FBB8EBBE09A99278DB3089578
:10078000FC010590615070400110D8F7809590955C
:100790008E0F9F1F0895FC01615070400190011061
:1007A000D8F7809590958E0F9F1F08950F931F93F4
:1007B000CF93DF938C01EB018B8181FF1BC082FF04
:1007C0000DC02E813F818C819D812817390764F4EB
:1007D000E881F9810193F983E88306C0E885F9850A
:1007E000802F0995009731F48E819F8101969F8318
:1007F0008E8302C00FEF1FEFC801DF91CF911F91D1
:100800000F910895FA01AA27283051F1203181F182
:10081000E8946F936E7F6E5F7F4F8F4F9F4FAF4F08
:10082000B1E03ED0B4E03CD0670F781F891F9A1F1B
:10083000A11D680F791F8A1F911DA11D6A0F711DCF
:10084000811D911DA11D20D009F468943F912AE0DB
:10085000269F11243019305D3193DEF6CF010895C3
:10086000462F4770405D4193B3E00FD0C9F7F6CFF4
:10087000462F4F70405D4A3318F0495D31FD4052BC
:10088000419302D0A9F7EACFB4E0A6959795879552
:1008900077956795BA95C9F7009761057105089531
:1008A0009B01AC010A2E06945795479537952795DD
:1008B000BA95C9F7620F731F841F951FA01D089575
:1008C0002F923F924F925F926F927F928F929F9260
:1008D000AF92BF92CF92DF92EF92FF920F931F934E
:1008E000CF93DF93CDB7DEB7CA1BDB0B0FB6F894FF
:1008F000DEBF0FBECDBF09942A88398848885F843F
:100900006E847D848C849B84AA84B984C884DF80AF
:10091000EE80FD800C811B81AA81B981CE0FD11D93
:100920000FB6F894DEBF0FBECDBFED010895F89469
:02093000FFCFF7
:100932005370656564204C696E6B73206973742013
:10094200256420203B00537065656420526563680E
:1009520074732069737420256420203B0047454846
:1009620045494D4E49533A20256420203B00000062
:0C0972000002000000002F000000000048
:00000001FF
